:020000021000EC
:10F000000000012001AD020029AD02002BAD02007D
:10F010002DAD02002FAD020031AD02000000000056
:10F0200000000000000000000000000033AD0200FE
:10F0300035AD02000000000037AD020039AD02001E
:10F04000F91B02003BAD02003BAD020085540200FB
:10F050003BAD02000DA4020071270200AD3E02008C
:10F060003BAD02003BAD02003BAD02003BAD0200F8
:10F070003BAD0200BD3B02003BAD02003BAD0200D8
:10F080003BAD0200099502003BAD02003BAD020022
:10F09000499502003BAD0200EDAB02003BAD020022
:10F0A0003BAD02003BAD02003BAD020031A10200CE
:10F0B00099390200F52D0200000000000000000058
:10F0C0003BAD02003BAD02003BAD02003BAD020098
:10F0D0003BAD02003BAD02003BAD02000000000072
:10F0E0000000000000000000000000000000000020
:10F0F0000000000000000000000000000000000010
:10F1000000000000000000000000000000000000FF
:10F1100000000000000000000000000000000000EF
:10F1200000000000000000000000000000000000DF
:10F1300000000000000000000000000000000000CF
:10F1400000000000000000000000000000000000BF
:10F1500000000000000000000000000000000000AF
:10F16000000000000000000000000000000000009F
:10F17000000000000000000000000000000000008F
:10F18000000000000000000000000000000000007F
:10F19000000000000000000000000000000000006F
:10F1A000000000000000000000000000000000005F
:10F1B000000000000000000000000000000000004F
:10F1C000000000000000000000000000000000003F
:10F1D000000000000000000000000000000000002F
:10F1E000000000000000000000000000000000001F
:10F1F000000000000000000000000000000000000F
:10F2000010B5054C237833B9044B13B10448AFF360
:10F2100000800123237010BD9845002000000000ED
:10F22000781F060008B5034B1BB103490348AFF331
:10F23000008008BD000000009C450020781F0600EB
:10F24000154B002B08BF134B9D46A3F5803A0021B8
:10F250008B460F461348144A121A2FF0EDFB0F4B42
:10F26000002B00D098470E4B002B00D09847002071
:10F27000002104000D000D48002802D00C48AFF317
:10F2800000802FF07FFB2000290012F007FB2FF0F9
:10F2900065FB00BF00000800000001200000000026
:10F2A0000000000098450020589400200000000055
:10F2B0000000000073DF704700BF184680B400AF45
:10F2C000034B1B781846BD465DF8047B704700BFB2
:10F2D0008A46002080B485B000AF78600023FB60D0
:10F2E0000AE07A68FB6813441B78002B01D00123E5
:10F2F00006E0FB680133FB60FB68052BF1D90023B6
:10F3000018461437BD465DF8047B704780B483B05F
:10F3100000AF0346FB71FB795A1C084B83FB0213B9
:10F320005910D317C91A0B469B000B44D11ACBB204
:10F3300018460C37BD465DF8047B70476766666605
:10F3400080B483B000AF78607B68DB7B012B03D196
:10F350007B689A88034B1A8000BF0C37BD465DF866
:10F36000047B70477C46002080B584B000AF786095
:10F370000D4B00221A707B689A880C4B1B889A42AE
:10F380000ED1012000F06CFAF860FB68002B07D06A
:10F39000074B1B68002B03D0054B1B68F868984788
:10F3A00000BF1037BD4680BD884600207C46002047
:10F3B0008446002080B584B000AF78607B681B7AFB
:10F3C000002B15D10C4B1B781846FFF79FFF034607
:10F3D000184600F045FAF860FB68002B09D0074B8F
:10F3E0001B68002B05D0054B1B68F868984700E0A8
:10F3F00000BF1037BD4680BDB745002084460020C1
:10F4000080B582B000AF3B1D184608F04DFA7B680E
:10F41000002B14BF01230023DBB218460837BD467A
:10F4200080BD000080B584B000AF0346FB711C486E
:10F43000FFF750FF0346FB73FB79013B032B29D8F1
:10F4400001A252F823F000BF59F401006BF401004F
:10F450007DF4010089F40100124B5B78002B04D08D
:10F46000FB7B002B01D0012315E00E4B9B78002B7A
:10F4700004D0FB7B002B01D002230CE0094BDB788E
:10F48000002B01D0032306E0064B1B79002B01D093
:10F49000042300E0002318461037BD4680BD00BF9E
:10F4A000DD450020B845002080B483B000AF78600F
:10F4B0000A4B01221A707B68094A5A607B68012254
:10F4C0001A707B6800229A817B6800225A8100238F
:10F4D00018460C37BD465DF8047B7047B6450020E2
:10F4E000DC45002080B483B000AF78600C4B022272
:10F4F0001A707B680B4A5A607B6801221A700A4BAB
:10F50000DB689AB27B689A81074B9B689AB27B68EA
:10F510005A81002318460C37BD465DF8047B7047BE
:10F52000B6450020DC450020B845002080B584B0F9
:10F5300000AF78601A4B1B699AB27B685A81184BEE
:10F540005B699AB27B689A81154B1B78002B1FD0A0
:10F55000144B1B7883F00103DBB2002B18D0FFF7AC
:10F56000ADFE0346002B13D07B6802221A720E4BAD
:10F570000422DA7000210C4801F06DFDF860FB6890
:10F58000002B01D0FB6807E0084B05221A7002E04F
:10F59000064B03221A70002318461037BD4680BD63
:10F5A000B845002088460020E4450020B6450020EC
:10F5B00080B584B000AF78601A4B9B699AB27B68C3
:10F5C0005A81184BDB699AB27B689A81154B1B787C
:10F5D000002B1FD0144B1B7883F00103DBB2002BF0
:10F5E00018D0FFF76BFE0346002B13D07B68022276
:10F5F0001A720E4B0422DA7000210C4801F02BFD28
:10F60000F860FB68002B01D0FB6807E0084B06227E
:10F610001A7002E0064B04221A70002318461037B5
:10F62000BD4680BDB845002088460020E445002046
:10F63000B645002080B483B000AF0346FB71044A96
:10F64000FB79137000BF0C37BD465DF8047B704733
:10F65000D8450020B0B588B000AFF860B9607A60D6
:10F660003B60FB68002B02D07B68002B01D10E238E
:10F67000D5E06D4B01221A706C4B00221A706C4A57
:10F680007B6814461D460FCD0FC495E80F0084E833
:10F690000F00684B00221A70674A3B681360674A84
:10F6A0003B6B1360664B4FF6FF721A8007220021F6
:10F6B00064482FF0C1F93C22002163482FF0BCF9C7
:10F6C000FB681A78604B1A70FB689A785E4B9A70E8
:10F6D000FB68DA785C4BDA70FB685A785A4B5A70E0
:10F6E000594BFA681033103292E8030083E80300A4
:10F6F000554BFA680833083292E8030083E80300A8
:10F70000514BFA681833183292E8030083E803007B
:10F71000FB685B6A002B29D04B4B4C4A5A624B4B1F
:10F720004B4A9A60FB685A6A474B5B6A12881A8098
:10F73000FB685A6A444B5B6A92889A800023FB619B
:10F740000DE0FB685B6A9A68FB6913441978404ACC
:10F75000FB6913440A461A70FB690133FB613A4B9B
:10F760005B6A9B881A46FB699342EAD3FB689B6AF3
:10F77000002B33D0374B384A9A60334B354A9A6264
:10F78000314B9B6A344A9A60FB689A6A2E4B9B6A9B
:10F7900092889A80FB689A6A2B4B9B6A12881A801F
:10F7A0000023BB610DE0FB689B6A9A68BB69134448
:10F7B0001978294ABB6913440A461A70BB69013398
:10F7C000BB61214B9B6A9B881A46BB699342EAD373
:10F7D000FB6893F82C201C4B83F82C20FB681B6AD9
:10F7E000002B0ED0184B1D4A1A62FB681A6A164B82
:10F7F0001B6A52885A80FB681A6A134B1B6A12886C
:10F800001A80FB685B68002B03D0FB685B680E4ABC
:10F810005360B9680C4801F01EFC78617B6918469A
:10F820002037BD46B0BD00BFB4450020B74500201D
:10F83000B8450020D845002080460020844600209E
:10F840007C460020DC450020E445002020460020C6
:10F850002C4600204C4600205846002078460020C8
:10F8600080B588B000AF0346FB71664B1B7883F010
:10F870000103DBB2002B01D00823BFE0624AFB7911
:10F880001370FFF7BDFD0346002B04D05F4B012230
:10F890001A700023B2E0072200215D482FF0CCF857
:10F8A0005C4B5B78002B03D0574B1B78012B0FD0A0
:10F8B000584B9B78002B03D0534B1B78012B07D060
:10F8C000544B9B78002B12D04F4B1B78022B0ED140
:10F8D000514B1B68002B07D0504B01221A704E4B26
:10F8E0001B680820984702E04C4B00221A70FB79F5
:10F8F0001846FFF797FD03461A46434B1A70464BCE
:10F900001B68002B1DD0404B1B78032B03D03E4BB4
:10F910001B78042B15D13F4B1B78002B11D0404B8B
:10F920001B7883F00103DBB2002B0AD03D4B002291
:10F930001A703D4B01221A70374B1B6807209847FD
:10F9400002E0394B00221A7007F10C03102200214B
:10F9500018462FF071F800233B7300233B752A4BA8
:10F960001B78042B2CD801A252F823F0B9F901001E
:10F9700081F901008FF901009DF90100ABF9010047
:10F9800007F10C031846FFF78FFDF86119E007F146
:10F990000C031846FFF7A6FDF86112E007F10C030F
:10F9A0001846FFF7C3FDF8610BE007F10C0318469A
:10F9B000FFF7FEFDF86104E01C4B00221A7000E026
:10F9C00000BF114B1B78002B0DD0194B1A7807F193
:10F9D0000C0311461846FFF76DFCF861FB69002B1C
:10F9E00001D0FB690AE00C4B1B68002B05D00A4BC9
:10F9F0001B680E4A12781046984700231846203795
:10FA0000BD4680BDB4450020B7450020B545002067
:10FA1000DC450020B845002080460020E34500205A
:10FA2000884600208A46002089460020B6450020EE
:10FA3000D845002080B582B000AF78607B681B8815
:10FA40001B2B0ED01B2B10DC102B02D0112B04D043
:10FA50000BE07868FFF774FC08E07868FFF784FC37
:10FA600004E07868FFF7A6FC00E000BF00BF08379D
:10FA7000BD4680BD80B584B000AF78607B68023B36
:10FA8000012B18D80F4B1B78002B16D00D4B0022E2
:10FA90001A700D4B1B781846FFF7E2FEF860FB6802
:10FAA000002B0AD0094B1B68002B06D0074B1B68A4
:10FAB000F868984701E000BF00E000BF00BF1037C2
:10FAC000BD4680BDB5450020B745002084460020D6
:10FAD000A0DF704700BF1846A2DF704700BF18467E
:10FAE000A3DF704700BF1846A4DF704700BF184669
:10FAF000A6DF704700BF184680B483B000AF7860BF
:10FB000039603B689A887B685A8200BF0C37BD46D3
:10FB10005DF8047B704780B483B000AF78603960D3
:10FB20007B684FF6FF725A8200BF0C37BD465DF806
:10FB3000047B704780B584B000AF786039607B6823
:10FB40001B7D002B24D03B680633FB60FB681A88C2
:10FB50007B685B899A421BD1FB685B89022B17D1BA
:10FB60007B681B68002B13D0FB680C33184601F030
:10FB70000EFE0346002B02D000233B7201E001235E
:10FB80003B727B681B6807F108021146786898474A
:10FB900000BF1037BD4680BD80B582B000AF786031
:10FBA00039607B68002B1CD03B68002B19D03B6868
:10FBB0001B88502B10D0502B15DC102B02D0112B92
:10FBC00005D010E039687868FFF796FF0CE03968D7
:10FBD0007868FFF7A0FF07E039687868FFF7AAFFA9
:10FBE00002E000BF00E000BF0837BD4680BD80B521
:10FBF00094B000AF786039607B681B7D002B1FD00C
:10FC000007F128030322002118462EF015FF97F86C
:10FC10002830012262F3030387F8283097F8283050
:10FC2000012262F3071387F828303B685B7B87F873
:10FC3000293097F82A30012262F3420387F82A30EC
:10FC400007F12C031C22002118462EF0F5FE97F830
:10FC50002C3043F0020387F82C307B681A7D97F82C
:10FC60002C3062F3041387F82C3000233B6300230D
:10FC7000BB630023FB637B681B7D002B02D007F175
:10FC8000280300E000233B6400237B640123BB7452
:10FC900042F619233B8207F10C0303220021184688
:10FCA0002EF0CAFE3B689B7B3B733B68DB7B7B7320
:10FCB000BB7B012262F34203BB73BB7B6FF3C303C5
:10FCC000BB73BB7B6FF30413BB73BB7B6FF300038E
:10FCD000BB733B681B7BFB7207F1140314220021EA
:10FCE00018462EF0A9FE07F110037B6107F10C0303
:10FCF000BB610123BB830023FB8301233B8407F10A
:10FD00000B037B627B6898887B68063307F11402DB
:10FD100007F12C01FFF7E0FEF864FB6C002B01D02B
:10FD2000FB6C62E03B689B68002B5AD00123BB74DC
:10FD300042F608133B8207F10C0303220021184608
:10FD40002EF07AFE3B681B7C3B737B7B6FF30303D7
:10FD50007B737B7B6FF307137B73BB7B012262F3A7
:10FD60004203BB73BB7B6FF3C303BB73BB7B6FF3FC
:10FD70000413BB73BB7B6FF30003BB733B689A68D0
:10FD800007F108031146184601F02CFD034687F8D9
:10FD90004B3007F114031422002118462EF04CFEBC
:10FDA00007F110037B6107F10C03BB6197F84B303F
:10FDB0009BB2BB830023FB83BB8B3B8407F108030F
:10FDC0007B627B68D8887B6803F10E0207F114031D
:10FDD0001946FFF785FEF864FB6C002B04D0FB6C22
:10FDE00003E07B680022DA81002318465037BD46C5
:10FDF00080BD80B584B000AF786039607B68002B2F
:10FE000002D03B68002B01D10E2326E03B681A6824
:10FE10007B681A607B684FF6FF725A823B681A79DA
:10FE20007B681A757B68FF221A740123BB7241F646
:10FE30000F033B817B681A1D07F108031946012057
:10FE4000FFF746FEF860FB68002B01D0FB6804E07A
:10FE500039687868FFF7CBFE034618461037BD4671
:10FE600080BD80B58AB000AF78600B46FB707B68C0
:10FE7000002B01D10E2350E000237B627B681A7CAB
:10FE8000FB789A4248D007F11C030822002118464B
:10FE90002EF0D2FD0123BB830023FB83FB1C3B62BE
:10FEA0007B68588A7B68DB8807F11C021946FFF7DC
:10FEB0001BFE78627B6A002B09D1FA787B681A7482
:10FEC0007B685B8A4FF6FF72934223D001E07B6A26
:10FED00023E07B681B7D002B1CD007F10C03102254
:10FEE000002118462EF0A8FD7B68DB88BB8101232A
:10FEF000BB73FB8B3B8207F11C037B613B6ABB61DD
:10FF00007B685B8A07F10C0211461846FFF7F0FD8B
:10FF1000786201E008237B627B6A18462837BD4679
:10FF200080BD000080B483B000AF0346FB71FB7955
:10FF300003F01F02074997F907305B09012000FA17
:10FF400002F2203341F8232000BF0C37BD465DF894
:10FF5000047B704700E100E080B483B000AF03464B
:10FF6000FB71FB7903F01F02074997F907305B0922
:10FF7000012000FA02F2603341F8232000BF0C3761
:10FF8000BD465DF8047B704700E100E080B400AF3F
:10FF9000BFF34F8F00BF074BDB6803F4E0620549F6
:10FFA000054B1343CB60BFF34F8F00BF00BF00BFB3
:10FFB000FCE700BF00ED00E00400FA05A0DF704799
:10FFC00000BF1846A2DF704700BF1846A6DF704783
:10FFD00000BF1846A8DF704700BF184662DF7047B1
:10FFE00000BF18463ADF704700BF18463BDF704736
:10FFF00000BF184611DF704700BF184613DF704777
:020000022000DC
:1000000000BF184680B582B000AF0F4B1B683B6045
:1000100000237B6010E001227B6802FA03F31A469A
:100020003B681340002B04D07B685BB21846FFF797
:1000300079FF7B6801337B607B681F2BEBD900BFA6
:1000400000BF0837BD4680BD00E100E080B582B04A
:1000500000AF4FF0FF310020FFF7C8FF78607B68EA
:10006000002B01D07B6825E0B1210020FFF7BAFF0B
:1000700078607B68002B01D07B681BE0FFF7BAFF3C
:1000800078607B68002B01D07B6813E04FF0102371
:100090005B691846FFF7B2FF78607B68002B01D0E0
:1000A0007B6807E01620FFF757FFFFF7ABFFFFF76E
:1000B0006DFF002318460837BD4680BD80B584B06B
:1000C00000AF78607B681B69002B08D000233B736E
:1000D0007B681B6907F10C021146786898477B68BA
:1000E00001221A7500BF1037BD4680BD80B592B0A1
:1000F00000AF7860396007F12C0300221A605A6063
:100100009A60DA601A615A619A6107F12803002146
:100110000A461A800A469A7007F1140300221A60F0
:100120005A609A60DA601A6107F1100300210A46EA
:100130001A800A469A7097F82830012262F3030366
:1001400087F8283097F82830012262F3071387F8E0
:10015000283097F82930012262F3030387F8293009
:1001600097F82930012262F3071387F8293097F8AE
:100170002A30012262F3420387F82A3097F82C30A4
:1001800043F0200387F82C3097F82C3043F0080315
:1001900087F82C3000233B630023BB630023FB6301
:1001A00007F128033B6400237B647B681B78BB73E7
:1001B0000323BB813B7C012262F303033B743B7C42
:1001C000012262F307133B747B7C012262F3030379
:1001D0007B747B7C012262F307137B74BB7C01225E
:1001E00062F34203BB74BB7C6FF3C303BB74BB7C81
:1001F00043F01003BB74BB7C43F00103BB7407F1F5
:100200000C037B6107F11003BB610023BB83002358
:10021000FB8317233B8400237B627B6858887B68C1
:10022000063307F1140207F12C01FFF7CBFE03465A
:1002300018464837BD4680BD90B589B000AF78609C
:100240003960264B07F108040FCB84E80F007B6868
:10025000002B01D10E233DE03B68002B01D10E2382
:1002600038E07B684FF6FF729A803B681A687B68BB
:100270001A617B6800221A757B6800229A73012339
:10028000BB764FF659633B837B689A1C07F11803D2
:1002900019460120FFF792FEF861FB69002B01D09F
:1002A000FB6917E07A6807F1080311461846FFF763
:1002B00095FEF861FB69002B01D0FB690AE0396803
:1002C0007868FFF713FFF861FB69002B01D0FB6929
:1002D00000E0002318462437BD4690BD7C68050029
:1002E00080B588B000AF78600B46FB7013463B804A
:1002F00007F108031022002118462EF09DFB03236E
:10030000FB8320233B76FB787B763B88DBB2BB7696
:100310007B68DB883B810223BB720023BB8107F132
:100320001E033B6107F118037B617B689B8807F123
:10033000080211461846FFF749FE00BF2037BD46A8
:1003400080BD000080B588B000AF786039600423BC
:10035000FB8307F108031022002118462EF06CFBE6
:1003600002233B727B689B7B002B06D0BB7B43F058
:100370000103BB730023BB8102E040F2FD13BB818C
:100380007B689B8807F1080211461846FFF722FE9A
:10039000B861BB69112BF3D0BB89002B1FD1124967
:1003A000032007F050FF3B681B7B012B02D1012388
:1003B000FB8302E00223FB8300BF3B681B7BFA8BBD
:1003C00019467868FFF78CFFFB8B012B08D13B683F
:1003D0001B7B012B04D17868FFF770FE00E000BFA3
:1003E0002037BD4680BD00BF8C68050080B584B055
:1003F00000AF786039603B689A887B689B889A4236
:100400001FD13B680633FB60FB681B78022B19D1B8
:10041000FB685A887B68DB889A4213D1FB681B7A99
:10042000042B0FD0FB681B7A062B0BD0FB681B7AC2
:10043000052B07D0FB68023319467868FFF782FF67
:1004400000E000BF1037BD4680BD80B483B000AF70
:10045000786039603B689A887B689A8000BF0C3767
:10046000BD465DF8047B704780B483B000AF786010
:1004700039607B689A883B689B889A4204D17B6884
:100480004FF6FF729A8000E000BF0C37BD465DF862
:10049000047B704790B585B000AF786039603B68E9
:1004A0000633FB60FB681A887B685B899A422FD110
:1004B000FB685B89022B2CD1FB680C33184601F0DA
:1004C0007BF903461A467B689A737B689B7B1C46C4
:1004D000FB680C33184601F05AF9034622460E49D0
:1004E000032007F0D4FE7B681B69002B11D07B68CA
:1004F0009B7B002B02D001233B7201E002233B7265
:100500007B681B6907F1080211467868984700E08C
:1005100000BF1437BD4690BDB868050080B584B0F3
:1005200000AF786039603B680633FB60FB681A886F
:100530007B68DB889A4205D17B681B7D002B01D04C
:10054000FFF784FD00BF1037BD4680BD80B582B087
:1005500000AF786039607B68002B2ED03B68002BA1
:100560002DD03B681B88532B22D0532B29DC512BD9
:1005700014D0512B25DC502B15D0502B21DC102B07
:1005800002D0112B05D01CE039687868FFF75DFFB9
:1005900018E039687868FFF767FF13E03968786812
:1005A000FFF724FF0EE039687868FFF773FF09E072
:1005B00039687868FFF7B2FF04E000BF02E000BFCF
:1005C00000E000BF0837BD4680BD6DDF704700BF4B
:1005D000184672DF704700BF184679DF704700BFCA
:1005E00018467DDF704700BF184664DF704700BFC4
:1005F000184680B483B000AF03463960FB80FB88A7
:10060000DAB23B681A70FB881B0A9AB23B68013366
:10061000D2B21A70022318460C37BD465DF8047B2F
:10062000704780B588B000AFF860B9601346FB80B2
:10063000BB681B8803F10902FB889A4201D90C238D
:1006400052E007F114031846FFF7BFFFF861FB699A
:10065000002B01D0FB6947E0BB681B881A46FB688A
:10066000134408221A70BB681B8801339AB2BB6816
:100670001A80BB681B881A46FB6813441B221A7039
:10068000BB681B8801339AB2BB681A80BB681B88A1
:100690001A46FB68981807F114030133062219461D
:1006A0002EF0A2F9BB681B8806339AB2BB681A8089
:1006B0003B7D23F00103DBB2002B07D1BB681B8815
:1006C0001A46FB68134400221A7006E0BB681B88B8
:1006D0001A46FB68134401221A70BB681B88013359
:1006E0009AB2BB681A80002318462037BD4680BDE9
:1006F00080B588B000AFF860B9607A607B80FB6835
:100700001B78012B05D1FB685B78002B01D10723F7
:1007100077E07B681B889A1C7B889A420DD8FB681F
:100720001B78012B0BD17B681B881A46FB685B7812
:1007300013449A1C7B889A4201D90C2361E07B68A0
:100740001B887A88D31A9BB2023BBB83BB8BFB828C
:100750007B681B880233BA68134407F116021146FE
:100760001846FFF73EFFB861BB69002B01D0BB699B
:1007700047E0FB681B78022B06D1FB8ABA8B9A42B2
:1007800002D30923FB7712E00823FB77FB681B7871
:10079000012B0AD1FB685B789BB2BA8B9A4204D3D7
:1007A000FB685B789BB2FB8201E0BB8BFB82FB8A20
:1007B000FE2B01D90C2324E0FB8ADAB27B681B886C
:1007C0001946BB680B440132D2B21A707B681B8891
:1007D00001339AB27B681A807B681B881A46BB6813
:1007E0001344FA7F1A707B681B8801339AB27B68C6
:1007F0001A807B681A88FB8A13449AB27B681A8035
:10080000002318462037BD4680BD80B586B000AFB6
:10081000F860B9601346FB80BB681B881A1DFB8813
:100820009A4201D90C2338E007F112031846FFF76A
:10083000D4FE78617B69002B01D07B692DE0BB6819
:100840001B881A46FB68134403221A70BB681B8876
:1008500001339AB2BB681A80BB681B881A46FB68D2
:10086000134419221A70BB681B8801339AB2BB6803
:100870001A807A8ABB681B881946FB680B441946A4
:100880001046FFF7B6FE03461946BB681A888BB2BE
:1008900013449AB2BB681A80002318461837BD4625
:1008A00080BD80B485B000AFB9607A601A46034657
:1008B000FB731346BB817B681B88DA1CBB899A4299
:1008C00001D90C2327E07B681B881A46BB681344B8
:1008D00002221A707B681B8801339AB27B681A80E7
:1008E0007B681B881A46BB68134401221A707B6818
:1008F0001B8801339AB27B681A807B681B881A4672
:10090000BB681344FA7B1A707B681B8801339AB268
:100910007B681A80002318461437BD465DF8047BB7
:10092000704780B485B000AFB9607A601A4603465C
:10093000FB731346BB817B681B88DA1CBB899A4218
:1009400001D90C2327E07B681B881A46BB68134437
:1009500002221A707B681B8801339AB27B681A8066
:100960007B681B881A46BB6813440A221A707B688E
:100970001B8801339AB27B681A807B681B881A46F1
:10098000BB681344FA7B1A707B681B8801339AB2E8
:100990007B681A80002318461437BD465DF8047B37
:1009A000704780B58AB000AFF8607B600B46FB7281
:1009B0001346BB72002387F823303B6B1B883B84B4
:1009C00000237B6268E0FB685A687B6A9B001A44DC
:1009D00007F110031068186007F1160107F1100302
:1009E00000221846FFF701FEB861BB69002B01D059
:1009F000BB696EE0BB7DBA7A9A424AD197F8233040
:100A0000002B01D0002300E00223FB753B6B1B8809
:100A10001A46BB7D1A44FB7D1A44BB8E9A4201DD07
:100A20000C2356E097F8233083F00103DBB2002B50
:100A300015D03B6B1B8801339AB23B6B1A803B6B22
:100A40001B881A467B681344FA7A1A703B6B1B8822
:100A500001339AB23B6B1A80012387F823303B6B3A
:100A60001B881A467B681A4407F1160107F1100328
:100A70001846FFF7BAFDB861BB69002B01D0BB690E
:100A800027E03B6B1A88BB7D9BB213449AB23B6B49
:100A90001A807B6A01337B62FB681B881A467B6A7B
:100AA000934290DB97F82330002B11D03B6B1A88D0
:100AB0003B8CD31A9BB2013BFB83FB8BFF2B01D9F1
:100AC0000C2306E03B8C7A681344FA8BD2B21A707E
:100AD000002318462837BD4680BD80B588B002AFD8
:100AE000F8607B600B46FB721346BB72F97ABB8CD5
:100AF00001933B6A00937B680222F868FFF751FF7D
:100B000078617B69002B01D07B6910E0B97ABB8CDE
:100B100001933B6A00937B681022F868FFF741FF5E
:100B200078617B69002B01D07B6900E000231846C7
:100B30001837BD4680BD80B483B000AF78607B6855
:100B40001B88052B0AD97B681B88B3F5486F07D92A
:100B50007B681B884FF6FF72934201D0072325E084
:100B60007B685B88052B0AD97B685B88B3F5486F87
:100B700007D97B685B884FF6FF72934201D0072349
:100B800014E07B681B884FF6FF7293420DD07B68A0
:100B90005B884FF6FF72934207D07B681A887B68A8
:100BA0005B889A4201D9072300E0002318460C37DE
:100BB000BD465DF8047B704780B586B000AFF86035
:100BC000B9607A607B807B681B889A1D7B889A421B
:100BD00001D90C234BE0F868FFF7ADFF78617B6922
:100BE000002B01D07B6942E07B681B881A46BB68FA
:100BF000134405221A707B681B8801339AB27B6804
:100C00001A807B681B881A46BB68134412221A702C
:100C10007B681B8801339AB27B681A80FB681A884C
:100C20007B681B881946BB680B4419461046FFF7C2
:100C3000E0FC034619467B681A888BB213449AB2CB
:100C40007B681A80FB685A887B681B881946BB68DA
:100C50000B4419461046FFF7CCFC034619467B6847
:100C60001A888BB213449AB27B681A800023184604
:100C70001837BD4680BD80B586B000AFF860B9605A
:100C80007A607B80FB689B8802337B617B681B8872
:100C90001A467B6913449A1C7B889A4201D90C231B
:100CA00054E07B69FE2B01D90C234FE07B69DAB25B
:100CB0007B681B881946BB680B440132D2B21A709C
:100CC0007B681B8801339AB27B681A807B681B881B
:100CD0001A46BB681344FF221A707B681B880133D5
:100CE0009AB27B681A80FB681A887B681B88194651
:100CF000BB680B4419461046FFF77BFC03461946B8
:100D00007B681A888BB213449AB27B681A80FB689E
:100D10009B88002B19D0FB689B68002B01D107230F
:100D200014E07B681B881A46BB689818FB689968B2
:100D3000FB689B881A462DF057FE7B681A88FB6873
:100D40009B8813449AB27B681A8000231846183790
:100D5000BD4680BD80B588B000AFF860B9607A60EC
:100D60007B80FB689B6A002B01D107236DE0002389
:100D7000FB7763E0FB68996AFA7F13465B001344D4
:100D80009B000B44BB61BB699B8802337B617B6921
:100D9000FE2B01D90C2358E07B69DAB27B681B88F3
:100DA0001946BB680B440132D2B21A707B681B88AB
:100DB00001339AB27B681A807B681B881A46BB682D
:100DC000134416221A707B681B8801339AB27B6821
:100DD0001A80BB691A887B681B881946BB680B445C
:100DE00019461046FFF705FC034619467B681A882A
:100DF0008BB213449AB27B681A80BB699B88002B24
:100E000019D0BB699B68002B01D107231DE07B68CB
:100E10001B881A46BB689818BB699968BB699B8890
:100E20001A462DF0E1FD7B681A88BB699B88134444
:100E30009AB27B681A80FB7F0133FB77FB6893F8DB
:100E40002C30FA7F9A4295D3002318462037BD46AE
:100E500080BD80B588B002AFF860B9607A600023C9
:100E60007B617B681B887B827B6800221A80FB6821
:100E700093F82D30002B0BD07B8A1A467968B8681E
:100E8000FFF7CFFB78617B69002B01D07B69BAE06B
:100E9000FB689B78002B0BD07B8A1A467968B86870
:100EA000FFF7B3FC78617B69002B01D07B69AAE076
:100EB000FB68DB78002B0DD0FB68DB7858B27B8AAF
:100EC0007A68B968FFF7EDFC78617B69002B01D087
:100ED0007B6998E0FB685B68002B0ED0FB685B6861
:100EE00093F900007B8A7A68B968FFF71AFD786188
:100EF0007B69002B01D07B6985E0FB681B89002B97
:100F000011D0FB6803F108007B8A01937B68009392
:100F1000BB6806220221FFF7E0FD78617B69002BA8
:100F200001D07B696FE0FB681B8A002B11D0FB6846
:100F300003F110007B8A01937B680093BB68072252
:100F40000321FFF7CAFD78617B69002B01D07B6923
:100F500059E0FB681B8B002B11D0FB6803F11800D4
:100F60007B8A01937B680093BB6815221421FFF7ED
:100F7000B4FD78617B69002B01D07B6943E0FB689D
:100F80001B6A002B0CD0FB68186A7B8A7A68B968E8
:100F9000FFF712FE78617B69002B01D07B6932E09C
:100FA000FB685B6A002B0CD0FB68586A7B8A7A6806
:100FB000B968FFF760FE78617B69002B01D07B691F
:100FC00021E0FB6893F82C30002B0BD07B8A7A68E9
:100FD000B968F868FFF7BEFE78617B69002B01D025
:100FE0007B6910E0FB681B78002B0BD07B8A7A684A
:100FF000B968F868FFF77CFB78617B69002B01D04A
:101000007B6900E07B6918461837BD4680BD80B417
:1010100083B000AF78607B68DB7803F00403002BBB
:1010200001D1072300E0002318460C37BD465DF8C8
:10103000047B704780B483B000AF78607B68DB7856
:10104000002B01D0072300E0002318460C37BD46D3
:101050005DF8047B704780B596B000AF786039606A
:101060001F23A7F84A301F23A7F848307B68002BBE
:101070001AD07868FFF7CBFFF864FB6C002B01D027
:10108000FB6C44E007F14A0207F12803194678682F
:10109000FFF7DFFEF864FB6C002B01D0FB6C36E041
:1010A00007F128037B6504E000237B650023A7F894
:1010B0004A303B68002B1AD03868FFF7BBFFF86452
:1010C000FB6C002B01D0FB6C21E007F1480207F11B
:1010D000080319463868FFF7BCFEF864FB6C002B68
:1010E00001D0FB6C13E007F108033B6504E000232B
:1010F0003B650023A7F84830B7F84A30D9B2B7F8B3
:101100004830DBB23A6D786DFFF763FA0346184654
:101110005837BD4680BD75DF704700BF184676DF83
:10112000704700BF18467ADF704700BF18467BDF64
:10113000704700BF1846000080B483B000AF7860ED
:101140007B685A88094B1B889A4207D37B685A8868
:10115000064B5B889A4201D8012300E00023184621
:101160000C37BD465DF8047B704700BFA8460020E1
:1011700080B586B000AF7860264B1B884FF6FF72B3
:10118000934243D0244B1B780133DAB2224B1A70BE
:10119000224B1A7B204B1B789A4212D31D4B1B8883
:1011A0001F491846FFF7B7FF38613B69002B2DD068
:1011B0001A4B9B69002B29D0184B9B6938699847BB
:1011C00024E0154B00221A70144B1B7C002B11D00D
:1011D000104B1B883B211846FFF7A1FF78617B6904
:1011E000002B07D00D4B9B69002B03D00B4B9B6949
:1011F00078699847094B5B69002B07D000233B7344
:10120000064B5B6907F10C021046984700BF183780
:10121000BD4680BDB2460020B04600208C4600206E
:10122000A8460020B0B584B000AF78601C4A7B6847
:1012300014461D460FCD0FC495E8070084E807004B
:10124000184B00221A707B681B68002B0ED07B683D
:101250001A68154B1068516803C31348FFF763FF02
:10126000F860FB68002B0AD0FB6815E00E48FFF71A
:101270005EFFF860FB68002B01D0FB680CE00B4BB5
:101280004FF6FF721A800A4B00221A70094A002199
:10129000094808F095F9034618461037BD46B0BD19
:1012A0008C460020DC460020A8460020B2460020E4
:1012B000B046002071110200F868050080B584B0C6
:1012C00000AF2448FFF738FF034683F00103DBB289
:1012D000002B2DD0204B1B78002B0BD01F4B5B69B4
:1012E000002B30D000233B711C4B5B693A1D10462C
:1012F000984728E01A4B1B78002B03D1174B5B68EB
:10130000FB6002E0154B9B68FB60164B0022F968FE
:10131000184608F089F9B860BB68002B13D00F4B52
:101320009B69002B0FD00D4B9B69B86898470AE06A
:101330000A4B5B69002B06D001233B70074B5B69AE
:101340003A4610469847044B00221A7000BF1037E7
:10135000BD4680BDB4460020DC4600208C460020FF
:10136000B0460020BC46002080B582B000AF786057
:101370007B689A880A4B1A800A4A7B68103393E884
:10138000030082E80300084B00221A70074BDB8938
:10139000002B01D1FFF792FF00BF0837BD4680BD8B
:1013A000B2460020B4460020B04600208C46002003
:1013B00080B584B000AF78600D4B4FF6FF721A8095
:1013C0000C4B00221A700C4B184608F061F9F860BB
:1013D000FB68002B07D0094B9B69002B03D0074B00
:1013E0009B69F868984700BF1037BD4680BD00BFB5
:1013F000B2460020B0460020BC4600208C460020AB
:1014000080B584B000AF78607B680633FB60FB6812
:101410001A88134BDB899A421ED1FB685B89022B29
:101420001AD1FB680C33184600F0B1F90346002BC3
:1014300002D0FFF743FF0FE00A4B184608F028F9E7
:10144000B860BB68002B07D0054B9B69002B03D00D
:10145000034B9B69B868984700BF1037BD4680BDF5
:101460008C460020BC46002080B582B000AF78607A
:10147000064A7B68083393E8030082E80300FFF71D
:101480001DFF00BF0837BD4680BD00BFB446002029
:1014900080B582B000AF78607B681B88502B12D07B
:1014A000502B18DC122B12D0122B14DC102B02D074
:1014B000112B04D00FE07868FFF756FF0CE0786836
:1014C000FFF776FF08E07868FFF79AFF04E0786896
:1014D000FFF7CAFF00E000BF00BF0837BD4680BD70
:1014E00080B584B000AF78601A4B7A681068516894
:1014F00003C31848FFF717FEF860FB68002B24D1E0
:101500001548FFF719FE034683F00103DBB2002BF9
:101510000DD0124B01221A70114B1B880D49184631
:10152000FFF7F9FDF8600F4B01221A700DE00E4B2A
:101530005B69002B07D001233B720B4B5B6907F102
:101540000802104698470023FB60FB6818461037D6
:10155000BD4680BDA8460020B4460020DC460020E1
:10156000B2460020B04600208C46002080B584B0F2
:1015700000AF0346FB80134B5B6CDB43184608F05F
:1015800037FA0346FB81FB894FF6FF72934213D073
:10159000FB890C4A5B001344FA889A80FA8801237D
:1015A00009490A4808F041FAFA880123084907481E
:1015B00008F03BFA012300E0002318461037BD462F
:1015C00080BD00BFE046002028470020E446002000
:1015D0002447002080B584B002AF0346FB80FB881F
:1015E000002200921D220449044808F036FA00BF88
:1015F0000837BD4680BD00BF24470020E4460020D8
:1016000080B582B000AF0346FB80FA88002304490E
:10161000044808F00AFA00BF0837BD4680BD00BF85
:1016200028470020E446002080B5A4B000AF184B46
:101630009B6CDA43164B5B6C1A403B4615491846C7
:1016400008F053FA07F148033946442218462DF0B2
:10165000CBF90023C7F88C300FE0D7F88C305B0053
:1016600007F19002134433F8443C1846FFF7B2FFE9
:10167000D7F88C300133C7F88C30BB6CD7F88C208E
:101680009A42EAD300BF00BF9037BD4680BD00BF7D
:10169000E0460020E446002080B584B000AF7860CA
:1016A0007B681B881A2B2ED01A2B4DDC102B02D0F6
:1016B000112B22D048E0FFF7B7FF7B689B881846C4
:1016C000FFF754FF034683F00103DBB2002B05D084
:1016D0001F4AE021042008F006F835E07B68DB7B38
:1016E000022B0CBF01230023FB737B689A88FB7BD2
:1016F0001849194808F099F926E07B689B88184634
:10170000FFF77EFF20E07B689A887B681B7AC3F333
:101710000313DBB2012B8CBF01230023DBB20F4983
:101720000D4808F082F97B689A887B681B7AC3F3BE
:101730000313DBB2022B8CBF01230023DBB2084969
:10174000054808F072F900BF00BF1037BD4680BDE4
:10175000FC6805002C470020E446002030470020AC
:101760003447002080B483B000AF78607B681B787A
:101770001AB27B6801331B781B021BB213431BB2E6
:101780009BB218460C37BD465DF8047B704780B5A8
:1017900084B000AF78607868FFF7E4FF0346FB8110
:1017A000FB8903F00103002B14BF01230023DBB2EC
:1017B00018461037BD4680BD80B584B000AF786054
:1017C0007868FFF7CFFF0346FB81FB8903F0020334
:1017D000002B14BF01230023DBB218461037BD468F
:1017E00080BD000080B584B000AF78603960002310
:1017F000FB73FB7B5A1CFA731A467B6813443A68E6
:1018000012781A70FB7B5A1CFA731A467B681344D1
:101810003A6852781A70FB7B022B0CBF012300231D
:10182000DBB2BB60BB68002B04D1054A4721002016
:1018300007F059FFFB7B18461037BD4680BD00BF3F
:101840007C69050080B483B000AF78604FF08042BF
:101850007B68C2F8043300BF0C37BD465DF8047BDB
:10186000704780B483B000AF78604FF080427B68EF
:10187000C2F8083300BF0C37BD465DF8047B7047E3
:1018800080B483B000AF0346FB71FB7903F1804362
:1018900001221A6000BF0C37BD465DF8047B70471B
:1018A00080B485B000AF0346FB80FB8803F1804322
:1018B00000221A60FB8803F180431B68FB60FB6811
:1018C00000BF1437BD465DF8047B704780B483B019
:1018D00000AF0346FB80FB8803F180431B68002BAD
:1018E00014BF01230023DBB218460C37BD465DF858
:1018F000047B704780B483B000AF0346FB71FB7973
:101900004FF0804203F00303C2F8183500BF0C37D4
:10191000BD465DF8047B704780B483B000AF0346DA
:10192000FB714FF08043D3F80C3403F00112FB79C4
:1019300043F480339A420CBF01230023DBB21846E4
:101940000C37BD465DF8047B7047000080B483B05F
:1019500000AF0346FB710C4A97F907305B0952F858
:101960002320FB7903F01F0322FA03F303F00103A2
:10197000002B14BF01230023DBB218460C37BD46F1
:101980005DF8047B704700BF00E100E080B500AF68
:101990000020FFF7DBFF034683F00103DBB2002BDF
:1019A00003D00621002000F0E5F900BF80BD3FDF35
:1019B000704700BF184640DF704700BF184680B52B
:1019C00000AF09F075F80346002B02D0FFF7EFFFD8
:1019D00009E04FF48070FFF763FF0120FFF732FF4B
:1019E0000020FFF74DFF80BD80B500AF09F060F823
:1019F0000346002B02D0FFF7DEFF0CE00420FFF7C8
:101A00003FFF00BF0120FFF787FF0346002BF9D1FE
:101A1000014B00225A7080BD9847002080B582B0EB
:101A200000AF00237B60144B1B78002B02D0852372
:101A30007B601BE0104B00229A600F4B00225A6023
:101A40000D4B00221A610C4B0022DA60FFF79EFF5B
:101A500009F02EF8034683F00103DBB2002B02D01D
:101A60000120FFF747FF044B01221A707B681846DC
:101A70000837BD4680BD00BF9847002080B485B0C0
:101A800000AF786039607B681B68FB6006E0FA682D
:101A90003B689A420DD0FB681B68FB60FB68002B1B
:101AA000F5D17B681A683B681A607B683A681A60EF
:101AB00000E000BF1437BD465DF8047B704780B47A
:101AC00085B000AF78607B681B68FB60FB68002B0B
:101AD00003D0FB681A687B681A60FB6818461437E5
:101AE000BD465DF8047B704780B584B000AF786078
:101AF0001E4B5B78DBB2002B17D07B68002B03D02A
:101B00007B685B68002098470023FB7307F10F0395
:101B1000184607F0F5FE154B5B680133134A536016
:101B2000FB7B184607F0F7FE1CE00023BB7307F1B0
:101B30000E03184607F0E4FE7B68002B03D079689B
:101B40000B48FFF79BFF094B5B68002B01D1FFF7A8
:101B500036FF064B5B680133044A5360BB7B184673
:101B600007F0D9FE00BF1037BD4680BD9847002062
:101B7000A047002080B582B000AF0023FB71FB1DA1
:101B8000184607F0BDFE094B5B68013B074A5360EE
:101B9000064B5B68002B01D1FFF726FFFB79184647
:101BA00007F0B9FE00BF0837BD4680BD984700204A
:101BB00080B584B000AF0346FB71FB79002B02D1E6
:101BC0000B4BFB6001E00B4BFB60F868FFF777FF06
:101BD000B860BB68002B05D0BB685B68FA7910461B
:101BE0009847F2E700BF00BF1037BD4680BD00BF79
:101BF000A0470020A847002080B500AF4FF48070B8
:101C0000FFF764FE0346002B0CD04FF48070FFF703
:101C100047FE0120FFF725FE0D4B01225A700020E0
:101C2000FFF7C6FF4FF48270FFF750FE0346002B0C
:101C30000CD04FF48270FFF733FE0220FFF711FE45
:101C4000034B01229A700120FFF7B2FF00BF80BD55
:101C50009847002080B582B000AF78607B68002B89
:101C600002D10020FFF7A4FF00BF0837BD4680BDAA
:101C700080B582B000AF0023FB71FB1D184607F052
:101C80003FFE0C4B1B7883F00103DBB2002B01D02D
:101C9000FFF7C4FE074BDB680133064AD360054BF0
:101CA00001229A70FB79184607F035FE00BF08370D
:101CB000BD4680BD9847002080B483B000AF034686
:101CC000FB71FB7903F01F02074997F907305B09A5
:101CD000012000FA02F241F8232000BF0C37BD4674
:101CE0005DF8047B704700BF00E100E080B483B082
:101CF00000AF0346FB71FB7903F01F02074997F918
:101D000007305B09012000FA02F2603341F823201A
:101D100000BF0C37BD465DF8047B704700E100E072
:101D200080B483B000AF03463960FB7197F9073088
:101D3000002B0BDA3B68DAB20C49FB7903F00F0396
:101D4000043B5201D2B20B441A7609E03B68DAB286
:101D5000074997F907305201D2B20B4483F80023A8
:101D600000BF0C37BD465DF8047B704700ED00E016
:101D700000E100E080B582B000AF03460A46FB7187
:101D80001346BB71BA7997F9073011461846FFF729
:101D9000C7FF97F907301846FFF7A8FF97F90730F4
:101DA0001846FFF789FF00BF0837BD4680BD80B5E4
:101DB00082B000AF0346FB80FB88184600F024F891
:101DC00003461B68012B0CBF01230023DBB218461E
:101DD0000837BD4680BD80B584B000AF0346FB80A8
:101DE000FB88184600F010F803461A4600231360DB
:101DF000FB88184600F008F803461B68FB60FB6888
:101E000000BF1037BD4680BD80B483B000AF03462D
:101E1000FB80FB8803F1804303F5C04318460C3771
:101E2000BD465DF8047B704780B483B000AF786036
:101E3000044A7B68C2F8043300BF0C37BD465DF826
:101E4000047B70470060004080B483B000AF7860CE
:101E5000044A7B68C2F8083300BF0C37BD465DF802
:101E6000047B70470060004080B483B000AF7860AE
:101E7000054BD3F804237B68134018460C37BD4646
:101E80005DF8047B704700BF0060004080B483B001
:101E900000AF7860094A7B6803F5A27352F82330DB
:101EA000064943F001027B6803F5A27341F8232041
:101EB00000BF0C37BD465DF8047B704700600040F2
:101EC00080B483B000AF7860094A7B6803F5A273E1
:101ED00052F82330064923F001027B6803F5A27310
:101EE00041F8232000BF0C37BD465DF8047B7047E6
:101EF0000060004080B485B000AFF860B960134660
:101F0000FB71164AFB6803F5A27352F8233013499C
:101F100023F4473323F44073FA6802F5A27241F8C0
:101F200022300E4AFB6803F5A27352F82320BB68E7
:101F30001B0203F4F851FB791B0403F440330B43F9
:101F400006491A43FB6803F5A27341F8232000BF3A
:101F50001437BD465DF8047B704700BF0060004049
:101F600080B483B000AF7860074A7B6803F5A27342
:101F700052F823301B0A03F01F0318460C37BD46E6
:101F80005DF8047B704700BF0060004080B483B000
:101F900000AF7860074A7B6803F5A27352F82330DC
:101FA0001B0C03F00303DBB218460C37BD465DF88B
:101FB000047B70470060004080B483B000AF78605D
:101FC000064A7B6803F5A273002142F8231000BF84
:101FD0000C37BD465DF8047B704700BF00600040D1
:101FE00080B483B000AF78604FF0A04318460C3740
:101FF000BD465DF8047B704780B584B000AF786063
:10200000084611461A460346FB700B46BB70134642
:102010007B703B1D1846FFF7E3FFF860FA78BB784A
:102020005B001A437B789B001A433B7E1B0242EA0B
:1020300003013B7F1B047A681943FB6802F5E072D9
:1020400043F8221000BF1037BD4680BD80B584B074
:1020500002AF78600B46FB70FB78002201920022F1
:102060000092002200217868FFF7C6FF00BF083702
:10207000BD4680BD80B584B002AF78600023019377
:10208000002300930023012200217868FFF7B4FFAA
:1020900000BF0837BD4680BD80B584B000AF786012
:1020A0003B1D1846FFF79CFFF8607A68FB6802F555
:1020B000E07253F8223023F00203BB607A68FB68B9
:1020C00002F5E072B96843F8221000BF1037BD4630
:1020D00080BD80B584B000AF78600B46FB703B1DBF
:1020E0001846FFF77DFFF8607A68FB6802F5E0723A
:1020F00053F822307A6823F44031FB6802F5E0722D
:1021000043F822107A68FB6802F5E07253F8223037
:10211000FA78120411467A681943FB6802F5E072F6
:1021200043F8221000BF1037BD4680BD80B584B093
:1021300000AF78603B1D1846FFF752FFF860F86863
:1021400000F021F802467B6822FA03F303F0010352
:1021500018461037BD4680BD80B584B000AF7860AA
:102160003B1D1846FFF73CFFF8607A68FB6802F5F4
:10217000E07253F822301B0C03F00303DBB2184665
:102180001037BD4680BD80B483B000AF78607B68F7
:10219000D3F8103518460C37BD465DF8047B704700
:1021A00080B586B000AFF860B9607A604FF0A043A8
:1021B0003B61FB687B6112E07B699B0007F11802C1
:1021C000134453F8083C1846FFF7DDFF02467B68CE
:1021D0001A607B6804337B607B6901337B61FA683A
:1021E000BB6813447A699A42E6D300BF00BF183730
:1021F000BD4680BD80B485B000AF786039603B6873
:10220000FB607B68DB08BB607B6803F007037B60D7
:1022100001227B6802FA03F3F968BA680A4412786B
:10222000134018461437BD465DF8047B704780B4F0
:1022300085B000AF786039603B68FB607B68DB0885
:10224000BB607B6803F007037B60FA68BB681344DC
:102250001B785AB201217B6801FA03F35BB2134386
:1022600059B2FA68BB681344CAB21A7000BF143777
:10227000BD465DF8047B704780B483B000AF7860E2
:102280000D4A7B681344403393F90030002B09DB7F
:10229000094A7B681344403393F90030072B01DC73
:1022A000012300E0002303F00103DBB218460C37E2
:1022B000BD465DF8047B7047AC47002080B483B016
:1022C00000AF7860084A7B681344403393F90030CC
:1022D000072BCCBF01230023DBB218460C37BD46C9
:1022E0005DF8047B704700BFAC47002080B483B02A
:1022F00000AF7860074A7B681344403393F900309D
:10230000DB43DBB2DB09DBB218460C37BD465DF8B8
:10231000047B7047AC47002080B485B000AFF86004
:10232000B9607A60FB70BB6859B2104AFB6813440D
:1023300040330A461A700D49BB687A6841F8232079
:10234000FB7883F00103DBB2002B08D0BB68083BAD
:10235000FA6851B2054A13440A4683F8602000BF68
:102360001437BD465DF8047B704700BFAC470020C2
:1023700080B483B000AF7860054A7B681344403373
:10238000FF221A7000BF0C37BD465DF8047B704712
:10239000AC47002080B483B000AF7860054A7B680A
:1023A0001344403393F9003018460C37BD465DF8AE
:1023B000047B7047AC47002080B483B000AF7860E6
:1023C000044A7B6852F8233018460C37BD465DF846
:1023D000047B7047AC47002080B588B000AFF86040
:1023E000B9601346FB71FF23FB77FB79002B01D00B
:1023F000002300E008237B61FB79002B01D0082338
:1024000000E010233B617B69BB6112E00E4ABB69AF
:1024100052F82330B3F1FF3F08D1FB79BA68B969AC
:10242000F868FFF779FFBB69FB7706E0BB6901330A
:10243000BB61BA693B699A42E8D397F91F301846E5
:102440002037BD4680BD00BFAC47002080B483B0BC
:1024500000AF0346FB71FB790A4A4FF0FF3142F8A7
:102460002310FB79072B06D9FB79083B054A134457
:10247000FF2283F8602000BF0C37BD465DF8047B67
:10248000704700BFAC47002080B582B000AF1D4B45
:1024900093F86830002B03D008233B603B682CE0A6
:1024A0000023FB7106E0FB791846FFF761FFFB791B
:1024B0000133FB71FB791F2BF5D90023FB7106E07B
:1024C000FB791846FFF7C2FFFB790133FB71FB79FB
:1024D0000F2BF5D906210620FFF74CFC4FF4BE70F8
:1024E000FFF779FC4FF00040FFF79EFC054B0122FF
:1024F00083F8682000233B603B6818460837BD46D8
:1025000080BD00BFAC47002080B400AF064B93F8FD
:102510006830002B14BF01230023DBB21846BD46F0
:102520005DF8047B704700BFAC47002080B586B0E3
:1025300000AFF860B9607A6000237B61F868FFF74C
:10254000D5FE0346002B02D008237B6140E0BB6828
:10255000DB781A467968F868FFF73EFF0346FB749C
:1025600097F91330B3F1FF3F30D0BB689B78002B55
:1025700003D0F868FFF790FD05E0BB685B7819466B
:10258000F868FFF763FDBB68DB78002B08D097F98C
:102590001300BB681B781A46F968FFF7ABFC17E01D
:1025A00097F91330083B0D4A134493F96010BB6848
:1025B0001B789B015AB297F91330083B0A4351B27A
:1025C000064A13440A4683F8602001E004237B6135
:1025D0007B6918461837BD4680BD00BFAC47002058
:1025E00080B588B000AF78600B46FB707868FFF765
:1025F00065FE0346002B27D07868FFF7CBFE034625
:10260000083B2A4A134493F96030FB73FB7B9B0918
:10261000BB73BB7B032B0AD17868FFF787FD0346AA
:10262000002B01D0032300E00223FB7706E0BB7BF5
:10263000012B01D1022300E00323FB77FB7F194626
:102640007868FFF746FD2DE07868FFF715FE034632
:10265000002B27D07868FFF79DFE0346BB61BB695E
:102660009BB240339BB29B00FB82BB691846FFF7CD
:102670000DFCFB8A1846FFF7AEFBFB78002B11D050
:102680007868FFF787FE03461846FFF795FE386126
:102690003B69002B06D00122BB6902FA03F31846FE
:1026A000FFF7C2FB00BF2037BD4680BDAC4700200E
:1026B00080B584B000AF78607868FFF7FFFD03460F
:1026C000002B04D000217868FFF703FD15E078683F
:1026D000FFF7D2FD0346002B0FD07868FFF75AFEB4
:1026E0000346FB60FB681846FFF7EAFB0122FB6824
:1026F00002FA03F31846FFF7A7FB00BF1037BD46E9
:1027000080BD80B582B000AF78607868FFF7D0FFF9
:102710007868FFF7B1FD0346002B06D07868FFF715
:1027200039FE03461846FFF747FC7868FFF7A2FC1E
:102730007868FFF72FFE0346DBB21846FFF786FEE8
:102740007868FFF715FE00BF0837BD4680BD80B52D
:1027500082B000AF78607868FFF7E8FC0346002B92
:1027600014BF01230023DBB218460837BD4680BDE5
:1027700080B594B000AF0023FB640023FB604FF4EE
:102780008073A7F8463001233B640023BB6421E03B
:10279000B7F846301846FFF70AFB0346002B0ED069
:1027A000386CFFF761FB0346002B08D0B7F84630C2
:1027B0001846FFF710FBFA6C3B6C1343FB643B6C51
:1027C0005B003B64B7F846300433A7F84630BB6C77
:1027D0000133BB64BB6C072BDAD94FF4BE70FFF733
:1027E000E6FA0346002B0ED04FF4BE70FFF7F3FA63
:1027F000FB6C43F00043FB6407F10C031A46012114
:102800000020FFF7CDFCFB6CDBB2002B29D00123AD
:102810003B640023BB6421E03A6CFB6C1340002B4B
:1028200016D0B86CFFF79CFB7863B86CFFF7AEFB73
:10283000034687F83330B86CFFF7BEFDF862FB6AD9
:10284000002B05D097F83320FB6A1146786B984728
:102850003B6C5B003B64BB6C0133BB64BB6C072B04
:10286000DAD9FB6C002B80F2F180002387F83B3033
:102870000023BB600023FB630BE0FB6B9B0007F1B5
:10288000500213444FF0FF3243F84C2CFB6B0133E2
:10289000FB63FB6B002BF0D0002387F83B30002359
:1028A000BB6474E06B4ABB6C1344603393F9003033
:1028B00087F82B3097F82B3023F0C0037B62654AF2
:1028C000BB6C1344603393F90030B3F1FF3F5BD02E
:1028D0003B1D1946786AFFF78DFC0346002B53D049
:1028E00097F82B309B0987F82330786AFFF752FD61
:1028F00003461846FFF760FDF861FB69002B03D122
:1029000097F82330032B3FD197F82330032B05D1C1
:1029100007F108031946786AFFF789FC786AFFF720
:102920001BFC0346FB7607F10C031946786AFFF798
:1029300061FC78617B69002B02D0FB7E022B05D005
:102940007B69002B20D1FB7E032B1DD197F8233010
:10295000032B10D1FB7E022B01D1032300E00223C5
:10296000FB74FB7C1946786AFFF7B3FB97F83B30A2
:10297000013387F83B30FB69002B05D097F8232003
:10298000FB691146786A9847BB6C0133BB64BB6C2A
:10299000072B87D997F83B30002B52D0012387F8BB
:1029A0003A303B461A4601210020FFF7F9FB00238D
:1029B000FB6316E0FB6B9B0007F15002134453F8D6
:1029C000502CFB6B9B0007F150010B4453F8443C27
:1029D0009A4203D0002387F83A3005E0FB6B0133BD
:1029E000FB63FB6B002BE5D097F83A30002B03D04C
:1029F000002387F83B3024E00023FB631EE0FB6BE1
:102A00009B0007F15002134453F8502CFB6B9B00C2
:102A100007F150010B4443F8442CFB6B9B0007F17A
:102A20005002134453F8482CFB6B9B0007F15001F4
:102A30000B4443F84C2CFB6B0133FB63FB6B002B0B
:102A4000DDD097F83B30002B7FF426AF00BF503726
:102A5000BD4680BDAC47002080B483B000AF0346C4
:102A6000FB710B46BB7113467B710A49FB797A797E
:102A700051331B010B4404331A600649FB79BA79C0
:102A800051331B010B441A6000BF0C37BD465DF883
:102A9000047B70470070004080B582B000AF0346F1
:102AA0003960FB713B681B7803F003023B685B787D
:102AB0001B0103F030031A433B689B781B0203F4AD
:102AC000E0631A433B68DB781B0303F480531A432B
:102AD0003B681B791B0403F4E0231A433B685B79D2
:102AE0001B0503F4801342EA03013B689B791B0634
:102AF00003F080720948FB790A431B01034403F584
:102B0000A3631A603B68D9793B681A7AFB79184647
:102B1000FFF7A2FF00BF0837BD4680BD0070004030
:102B200080B483B000AF0346FB71FB7903F18043AF
:102B300003F5E83301221A6000BF0C37BD465DF88B
:102B4000047B704780B483B000AF0346FB80FB88F2
:102B500003F1804303F5E8331B68002B14BF012306
:102B60000023DBB218460C37BD465DF8047B704786
:102B700080B485B000AF0346FB80FB8803F180433F
:102B800003F5E83300221A60FB8803F1804303F564
:102B9000E8331B68FB60FB6800BF1437BD465DF877
:102BA000047B704780B483B000AF7860044A7B68D0
:102BB000C2F8043300BF0C37BD465DF8047B704794
:102BC00000D0014080B400AF044B0122C3F80025BF
:102BD00000BFBD465DF8047B704700BF00D00140D8
:102BE00080B400AF044B0022C3F8002500BFBD46EF
:102BF0005DF8047B704700BF00D0014080B483B013
:102C000000AF03460A46FB711346BB71FB7903F024
:102C10000102BB795B0003F0020305491343C1F8CD
:102C2000083500BF0C37BD465DF8047B704700BF18
:102C300000D0014080B483B000AF7860044A7B6864
:102C4000C2F8043500BF0C37BD465DF8047B704701
:102C500000D0014080B483B000AF78603960074A8B
:102C60007B68C2F84035054A3B68C2F8443500BF6E
:102C70000C37BD465DF8047B704700BF00D00140B3
:102C800080B483B000AF03460A46FB711346BB71A4
:102C9000064AFB79C2F81835044ABB79C2F81C35DC
:102CA00000BF0C37BD465DF8047B704700D0014083
:102CB00080B483B000AF78603960074A7B68C2F89F
:102CC0006035054A3B68C2F8643500BF0C37BD4625
:102CD0005DF8047B704700BF00D0014080B400AFB6
:102CE000034BD3F860351846BD465DF8047B70474A
:102CF00000D0014080B483B000AF78604FF0A043B3
:102D000018460C37BD465DF8047B704780B584B02B
:102D100000AF7860084611461A460346FB700B4622
:102D2000BB7013467B703B1D1846FFF7E3FFF8604E
:102D3000FA78BB785B001A437B789B001A433B7E92
:102D40001B0242EA03013B7F1B047A681943FB68BC
:102D500002F5E07243F8221000BF1037BD4680BD77
:102D600080B584B002AF7860002301930023009304
:102D70000023012201217868FFF7C8FF00BF083750
:102D8000BD4680BD80B584B002AF78600B46FB7055
:102D9000FB78002201920022009200220021786834
:102DA000FFF7B4FF00BF0837BD4680BD80B584B0D3
:102DB00000AF78603B1D1846FFF79CFFF8607B680A
:102DC000012202FA03F31946F86800F004F800BF84
:102DD0001037BD4680BD80B483B000AF78603960E5
:102DE0007B683A68C3F80C2500BF0C37BD465DF818
:102DF000047B704780B500AF4FF48470FFF7A2FEEC
:102E00000346002B1CD04FF48470FFF7B1FEFFF790
:102E100065FF0246274BDB689A4208D1254B5B6869
:102E2000244A126923490989104698473FE0214BFB
:102E30005B68204AD2681F4909891046984736E0E6
:102E40004FF48070FFF77EFE0346002B1FD04FF437
:102E50008070FFF78DFE174B01225A70FFF73EFF7F
:102E60000246144BDB689A4208D1124B1B69114A87
:102E7000128911461846FFF71BFF18E00D4BDB685F
:102E80000C4A128911461846FFF712FF0FE04FF463
:102E90008270FFF757FE0346002B08D04FF4827074
:102EA000FFF766FEFFF79CFE024B00225A7000BF40
:102EB00080BD00BF1848002080B584B000AF7860A6
:102EC00039603F4B1B78002B03D00823FB60FB6865
:102ED00071E07B68002B02D03B68002B03D10723F5
:102EE000FB60FB6867E07B681B7A502B08D87B6827
:102EF0005B7A502B04D87B689B89B3F5004F03D9CC
:102F00000723FB60FB6856E07B681B692C4AD36093
:102F10007B685B692A4A13617B689A89284B1A810E
:102F2000274A3B685360264B00225A70244BDB68CB
:102F3000234A128911461846FFF7BAFE7B685B6880
:102F40001846FFF777FE7B681A787B685B7819462E
:102F50001046FFF753FE7B681A7A7B685B7A194646
:102F60001046FFF78DFE7B689B781846FFF7F8FE4A
:102F70007B689B781846FFF719FF7B68DB78012197
:102F80001846FFF7FFFE7B689B781A467B68DB7864
:102F900019461046FFF75EFE094B01221A70072002
:102FA000FFF700FE7B689B7A19461D20FEF7E2FEC4
:102FB0000023FB60FB6818461037BD4680BD00BF8C
:102FC0001848002080B582B000AF134B5B78002B0F
:102FD0000BD0114B5B78012B03D100237B607B6806
:102FE00015E011237B607B6811E00B4B02225A70C5
:102FF000094B02221A70FFF7E5FD4FF48070FFF7CE
:10300000B7FD0020FFF78CFD00237B607B6818462E
:103010000837BD4680BD00BF1848002080B582B08B
:1030200000AF114B5B78012B0DD00F4B5B78002B61
:1030300005D1FFF7D5FD00237B607B680FE01123EE
:103040007B607B680BE0084B02225A70064B012222
:103050001A700420FFF764FD00237B607B6818462C
:103060000837BD4680BD00BF1848002080B483B03B
:1030700000AF78600B46FB70FB787A68134401223E
:103080001A6000BF0C37BD465DF8047B704780B402
:1030900083B000AF78600B46FB70FA787B6813440E
:1030A00018460C37BD465DF8047B704780B485B088
:1030B00000AF78600B467B807B887A6813440022DF
:1030C0001A607B887A6813441B68FB60FB6800BF4A
:1030D0001437BD465DF8047B704780B483B000AF01
:1030E00078600B467B807B887A6813441B68002BD2
:1030F00014BF01230023DBB218460C37BD465DF830
:10310000047B704780B483B000AF786039607B681F
:103110003A68C3F8002200BF0C37BD465DF8047B57
:10312000704780B483B000AF786039607B683A68DC
:10313000C3F8002300BF0C37BD465DF8047B704721
:1031400080B483B000AF78607B680122C3F80025AB
:1031500000BF0C37BD465DF8047B704780B485B076
:1031600000AF786039600023FB730DE0FB7B9B00B0
:103170003A681344FA7B19687B6802F5AC7243F82D
:103180002210FB7B0133FB73FB7B032BEED900BFCB
:1031900000BF1437BD465DF8047B704780B483B030
:1031A00000AF7860084611461A460346FB700B468E
:1031B000BB7013463B80FA787B68C3F80C25BA785D
:1031C0007B68C3F804253A887B68C3F8082500BFEC
:1031D0000C37BD465DF8047B704780B584B000AF06
:1031E000F8600B467A60FB727B681A68FB7A1946B6
:1031F000F86800F019F87B689A88FB7A1946F86835
:1032000000F026F87B689A68FB7A1946F86800F0A7
:1032100035F87B68DA68FB7A1946F86800F043F8FD
:1032200000BF1037BD4680BD80B485B000AFF860E8
:103230000B467A60FB72FB7A7A68F96829335B0186
:103240000B441A6000BF1437BD465DF8047B70471D
:1032500080B483B000AF78600B46FB7013463B80B0
:10326000FB783A88796829335B010B4404331A6090
:1032700000BF0C37BD465DF8047B704780B485B055
:1032800000AFF8600B467A60FB72FB7AFA685B016C
:10329000134403F5A5637A681A6000BF1437BD466E
:1032A0005DF8047B704780B485B000AFF8600B46D2
:1032B0007A60FB72FB7AFA685B01134403F22C53C9
:1032C0007A681A6000BF1437BD465DF8047B70470A
:1032D00080B483B000AF78600B46FB701346BB70C0
:1032E000FA78BB781B021A437B68C3F8102500BF2D
:1032F0000C37BD465DF8047B704780B483B000AFE7
:1033000078600B467B807A887B68C3F8142500BF01
:103310000C37BD465DF8047B704780B485B000AFC4
:1033200078607B681B0BFB7397F90F3018461437D6
:10333000BD465DF8047B704780B483B000AF786011
:103340004FF0A04318460C37BD465DF8047B70472C
:1033500080B584B000AF7860084611461A4603462F
:10336000FB700B46BB7013467B703B1D1846FFF786
:10337000E3FFF860FA78BB785B001A437B789B0028
:103380001A433B7E1B0242EA03013B7F1B047A681F
:103390001943FB6802F5E07243F8221000BF1037B2
:1033A000BD4680BD80B584B002AF78600023019334
:1033B000002300930023012201217868FFF7C8FF52
:1033C00000BF0837BD4680BD80B584B000AF7860CF
:1033D0003B1D1846FFF7B0FFF8607B68012202FA38
:1033E00003F31946F86800F019F800BF1037BD461E
:1033F00080BD80B584B000AF78603B1D1846FFF7F4
:103400009BFFF8607B68012202FA03F31946F86813
:1034100000F013F800BF1037BD4680BD80B483B004
:1034200000AF786039607B683A68C3F8082500BF50
:103430000C37BD465DF8047B704780B483B000AFA5
:10344000786039607B683A68C3F80C2500BF0C3798
:10345000BD465DF8047B704780B588B000AF7860EA
:1034600039600023FB7747E0FB7F3A68D35CBB778A
:10347000BB7FFF2B34D0BB7F03F08003002B14BF36
:10348000012300237B77BA7FFB7F22F080029B0021
:1034900007F120010B4443F8142C7B7F002B0AD04A
:1034A000FB7F9B0007F12002134453F8143C18469D
:1034B000FFF78AFF09E0FB7F9B0007F1200213441E
:1034C00053F8143C1846FFF794FFFB7F9B0007F16D
:1034D0002002134453F8143C1846FFF763FF08E03A
:1034E000FB7F9B0007F1200213444FF0FF3243F8AB
:1034F000142CFB7F0133FB77FB7F032BB4D97B6854
:103500001B6807F10C0211461846FFF727FE00BFA3
:103510002037BD4680BD000080B586B000AFF860A2
:10352000B9607A60FB681B79DB00374A13447B6122
:103530007B691B79DBB2002B03D008233B613B691D
:103540005DE07B697A681A60B968F868FFF784FF04
:10355000FB681B681846FFF7F3FDFB681868BB683B
:103560005979BB689A79BB681B89FFF717FEFB681E
:103570001868BB68997ABB68DB7A1A46FFF7A8FE21
:10358000FB681B6800211846FFF7BCFDFB681B6841
:1035900000211846FFF7C5FDFB681B684FF48E71CC
:1035A0001846FFF783FDFB681B684FF488711846C7
:1035B000FFF77CFDFB681B684FF48A711846FFF724
:1035C00075FDFB681B684FF482711846FFF76EFDAE
:1035D0007B691B68002B0CD0FB681B681846FFF743
:1035E0009CFE03461A46BB681B7919461046FEF737
:1035F000C1FB7B6901221A7100233B613B691846BC
:103600001837BD4680BD00BF2C48002080B586B06D
:1036100000AFF860B96011461A460B46FB711346BD
:10362000BB71BB6802221A71BB68FA795A71BB6818
:103630001B68002B22D082237B61FB7903F00403FB
:10364000002B03D07B6943F010037B61FB7903F00F
:103650000803002B03D07B6943F020037B61FB79D7
:1036600003F01003002B03D07B6923F080037B6100
:10367000FB681B6879691846FFF753FDFB681B68F8
:103680004FF482711846FFF711FD97F90730002BB0
:1036900009DAFB681B68BA7911461846FFF7F7FC90
:1036A00038613B6907E0FB681B68BA791146184628
:1036B000FFF7DCFC002318461837BD4680BD00002C
:1036C00080B588B000AFF860B9603B601346FB80FE
:1036D000FB681B79DB00294A1344FB61FB681B680C
:1036E000BA6800211846FFF778FDFB681B68BA68C6
:1036F00001211846FFF771FDFB8803F00103002B41
:1037000014BF01230023FB75FB681868FB885B0866
:103710009AB2FB7D9BB213449BB21946FFF7EDFDB5
:103720003B6803F00103002B02D01023BB610EE0C5
:103730003B6803F00203002B07D0FB7D002B01D078
:10374000082300E00423BB6101E00023BB61FB68A8
:103750001B68B9691846FFF7D5FC3B68DAB2FB7DF8
:10376000002B01D00C2300E00823F969F868FFF76B
:103770004DFF034618462037BD4680BD2C4800202B
:1037800080B586B000AFF860B9607A607B80FB6876
:103790001B79DB001D4A13443B61FB681B68BA6858
:1037A00000211846FFF719FDFB681B687A680121A4
:1037B0001846FFF712FDFB681B687A881146184609
:1037C000FFF79BFD3B6A03F00103002B02D010239F
:1037D0007B6109E03B6A03F00203002B02D0042363
:1037E0007B6101E000237B61FB681B6879691846F7
:1037F000FFF788FC3B6ADAB208233969F868FFF7FB
:1038000005FF034618461837BD4680BD2C480020EA
:1038100080B584B000AF78600B46FB700023FB736B
:10382000786800F01DF80346002B02D00123FB73DB
:1038300011E07B681B6804211846FFF717FC7868C5
:1038400000F00EF80346002B02D00123FB7302E0C8
:10385000FB78002BF3D1FB7B18461037BD4680BDAB
:1038600080B584B000AF78607B681B79DB00104ABC
:103870001344BB600023FB73BB681B79DBB2022BD4
:1038800001D00123FB737B681B684FF482711846DB
:10389000FFF723FC0346002B04D0BB6801221A71FA
:1038A0000123FB73FB7B18461037BD4680BD00BF6C
:1038B0002C48002080B582B000AF786039604FF4AA
:1038C00088717868FFF709FC0346002B12D04FF48B
:1038D00088717868FFF7EAFB3B685B7903F00403C3
:1038E000002B07D03B681B68002B03D03B681B688C
:1038F000012098474FF48A717868FFF7EEFB034682
:10390000002B12D04FF48A717868FFF7CFFB3B6829
:103910005B7903F00803002B07D03B681B68002B82
:1039200003D03B681B68022098474FF48E7178687B
:10393000FFF7D3FB0346002B12D04FF48E7178684B
:10394000FFF7B4FB3B685B7903F01003002B07D152
:103950003B681B68002B03D03B681B68002098471E
:103960004FF482717868FFF7B8FB0346002B0FD045
:103970004FF482717868FFF799FB3B6801221A7156
:103980003B681B68002B03D03B681B6803209847EB
:1039900000BF0837BD4680BD80B500AF024903486F
:1039A000FFF788FF00BF80BD2C48002000C0014009
:1039B00080B483B000AF7860044A7B68C2F80433F7
:1039C00000BF0C37BD465DF8047B704700D0004057
:1039D00080B483B000AF7860044A7B68C2F80833D3
:1039E00000BF0C37BD465DF8047B704700D0004037
:1039F00080B483B000AF0346FB71084BD3F80823B3
:103A0000FB791340002B14BF01230023DBB21846BF
:103A10000C37BD465DF8047B704700BF00D0004006
:103A200080B483B000AF0346FB71FB7903F18043A0
:103A300003F5504301221A6000BF0C37BD465DF804
:103A4000047B704780B485B000AF0346FB80FB88E1
:103A500003F1804303F5504300221A60FB8803F111
:103A6000804303F550431B68FB60FB6800BF1437BD
:103A7000BD465DF8047B704780B483B000AF034659
:103A8000FB80FB8803F1804303F550431B68002B48
:103A900014BF01230023DBB218460C37BD465DF886
:103AA000047B704780B400AF044BD3F80835DBB219
:103AB0001846BD465DF8047B704700BF00D000404B
:103AC0002FDF704700BF184630DF704700BF184631
:103AD00080B500AF4FF48070FFF7B4FF0120FFF70F
:103AE00067FF0020FFF79CFF00BF80BD80B500AFDF
:103AF0000120FFF76DFF0420FFF792FF00BF80BD9C
:103B000080B582B000AF786006F0D2FF0346002B8C
:103B100005D07868FFF7D4FF0346002B07D006488E
:103B200004F0A9FD0346DAB27B681A7000E000BF1A
:103B30000837BD4680BD00BFFC69050080B584B074
:103B400000AF78600B46FB700023FB600023BB7264
:103B500007F10A03184605F0D3FE06F0A9FF034655
:103B6000FB72FB7A83F00103DBB2002B08D0FB78F9
:103B70001A467968104804F052FDF860FFF7A8FF74
:103B8000BB7A184605F0C7FEFB7A002B0CD0FB78F9
:103B900019467868FFF798FFF860FB6842F2070261
:103BA000934201D10523FB60FB68022BCED0FB685A
:103BB00018461037BD4680BDFC69050080B582B04F
:103BC00000AF0023FB71FB1D184605F099FE06F0BF
:103BD0006FFF034683F00103DBB2002B21D04FF4CB
:103BE0008070FFF749FF0346002B1AD00120FFF732
:103BF000FFFE0346002B14D04FF48070FFF722FF26
:103C0000FFF750FF0346BB71BB1D1946094804F07E
:103C1000F9FB084804F0DAFB0346002B01D0FFF75C
:103C200065FFFB79184605F076FE00BF0837BD46F4
:103C300080BD00BFFC69050080B483B000AF0346BF
:103C4000FB71FB7903F01F02074997F907305B0905
:103C5000012000FA02F2203341F8232000BF0C3784
:103C6000BD465DF8047B704700E100E080B483B09E
:103C700000AF0346FB71FB7903F1804303F5E0439A
:103C800001221A6000BF0C37BD465DF8047B704707
:103C900080B483B000AF0346FB80FB8803F1804310
:103CA00003F5E0431B68002B14BF01230023DBB2A4
:103CB00018460C37BD465DF8047B704780B485B06C
:103CC00000AF0346FB80FB8803F1804303F5E0432C
:103CD00000221A60FB8803F1804303F5E0431B6870
:103CE000FB60FB6800BF1437BD465DF8047B70477E
:103CF00080B483B000AF0346FB710B46BB71134623
:103D00007B710A49FB797A7951331B010B440433E7
:103D10001A600649FB79BA7951331B010B441A60CA
:103D200000BF0C37BD465DF8047B70470070004053
:103D300080B483B000AF0346FB710B46BB801346D3
:103D40007B80B7F9043099B2B7F902301A040748FA
:103D5000FB790A431B01034403F21C531A6000BFA2
:103D60000C37BD465DF8047B704700BF0070004013
:103D700080B483B000AF7860044A7B68C2F8043333
:103D800000BF0C37BD465DF8047B704700700040F3
:103D900080B483B000AF7860044A7B68C2F808330F
:103DA00000BF0C37BD465DF8047B704700700040D3
:103DB00080B485B000AF03460A46FB711346BB7161
:103DC000BB79002B01D1802300E04023FB60FB790D
:103DD0005B00FA6802FA03F318461437BD465DF833
:103DE000047B704780B400AF044B0122C3F8002568
:103DF00000BFBD465DF8047B704700BF0070004007
:103E000080B400AF044B0022C3F8002500BFBD46BC
:103E10005DF8047B704700BF0070004080B483B041
:103E200000AF78603960074A7B68C2F82C36054AD3
:103E30003B68C2F8303600BF0C37BD465DF8047BE6
:103E4000704700BF0070004080B483B000AF0346ED
:103E5000FB71054AFB79C2F8F03500BF0C37BD464F
:103E60005DF8047B704700BF0070004080B483B0F1
:103E700000AF0346FB71054AFB79C2F8F43500BF79
:103E80000C37BD465DF8047B704700BF00700040F2
:103E900080B582B000AF0346FB7197F90730184632
:103EA000FFF7CAFE00BF0837BD4680BD80B58CB0A5
:103EB00000AF4FF48270FFF7EBFE0346002B45D0B6
:103EC0004FF48270FFF7FAFE874B93F82E3083F0A1
:103ED0000103DBB2002B04D1834B93F82F30002B6E
:103EE00034D000233B76804B5B68FB617E4B1B89A3
:103EF0009BB23B847C4BDB68002B03D17A4B0022C6
:103F00001A7419E0784B1A8B774B5A83764BDB681F
:103F1000754A5360744B1A8B734B1A81724B002293
:103F2000DA60714B93F82E3083F00103DBB2002B83
:103F300002D00020FFF79AFE6B4B1B6807F11802B6
:103F400010469847684B002283F82F20664B93F861
:103F50002E30002B62D04FF48070FFF799FE03469D
:103F6000002B5BD04FF48070FFF7A8FE5E4B5A8B9E
:103F70005D4B93F82D309BB29A421CD95A4B5A8B09
:103F8000594B93F82D309BB2D31A9AB2564B5A83A1
:103F9000554B5A68544B1B899BB21946524B5B8B4D
:103FA000CB1A5B001344504A92F82D201146184654
:103FB000FFF734FF2BE04C4B5A8B4B4B93F82D30D3
:103FC0009BB29A4214D1484BDB68002B10D0464B71
:103FD000012283F82F20444B00225A83424BDB6896
:103FE000414A92F82D2011461846FFF717FF0EE0C0
:103FF0003D4B5A8B3C4B93F82D309BB29A4206D1E5
:10400000394B012283F82F20374B00225A834FF47B
:104010008270FFF753FE0420FFF728FE4FF48870EC
:10402000FFF736FE0346002B0ED04FF48870FFF7E3
:1040300045FE2D4B00221A7402233B732A4B1B684A
:1040400007F10C02104698474FF48A70FFF720FEE4
:104050000346002B07D04FF48A70FFF72FFE224B48
:1040600000221A743CE0204B5B69FB6235E0FB6A7E
:10407000B3FA83F3BB624FF00042BB6A22FA03F348
:10408000DB43FA6A1340FB62BB6A9BB246339BB2C6
:104090009B00FB84FB8C1846FFF7FAFD0346002BC0
:1040A0001BD0FB8C1846FFF709FE01233B70FB8CED
:1040B000A3F58C73DB08DBB23B71FB8CA3F58C732F
:1040C00003F00403002B0CBF01230023DBB27B7140
:1040D000054B1B683A4610469847FB6A002BC6D131
:1040E00000BF3037BD4680BD6448002080B584B035
:1040F00000AF786039602F4B93F82C30002B03D041
:104100000823FB60FB6851E03B68002B03D10723C9
:10411000FB60FB684AE07B68002B01D1264B7B608B
:10412000244A3B6813607B681B781846FFF78CFEB7
:104130007B685B781846FFF799FE7B68DA781D4B41
:1041400083F82E201B4B012283F82C20194B0022D0
:104150001A74184B002283F82D20164B00225A6146
:10416000144B002283F82F206FF00040FFF710FE61
:104170004FF48270FFF7A2FD4FF48070FFF79EFDB1
:104180007B689B7819460720FDF7F4FD0220FFF7B6
:10419000EFFD084B93F82E30002B02D00120FFF7E3
:1041A000E7FDFFF71FFE0023FB60FB681846103792
:1041B000BD4680BD64480020106A050080B582B00D
:1041C00000AF6FF00040FFF7E3FD0720FFF760FE50
:1041D0000820FFF74BFD42F210737B6002E07B6822
:1041E000013B7B604FF48A70FFF752FD034683F07A
:1041F0000103DBB2002B02D07B68002BEFD1FFF76D
:10420000FFFD104B00221A7400233B600FE00D4AA3
:104210003B680C335B0013441B79002B04D03B68D4
:10422000DBB2184600F058F83B6801333B603B684E
:10423000072BECD9034B002283F82C2000BF083752
:10424000BD4680BD6448002080B584B000AF034601
:104250003960FB711F4B1B7CDBB2002B03D0112399
:10426000FB60FB6831E0FB791A4A0C335B001344B6
:104270001B79002B07D1174B93F82D300133DAB29D
:10428000144B83F82D20FB793A68D179114A0C330D
:104290005B0013440A461A71FB793A68117A0D4A99
:1042A0000C335B0013440A465A71FB79396818468F
:1042B000FEF7F2FB3B68D9793B681A7AFB7918461E
:1042C000FFF716FD0023FB60FB6818461037BD465C
:1042D00080BD00BF6448002080B584B000AF0346B5
:1042E000FB711D4B1B7CDBB2002B03D01123FB6049
:1042F000FB682DE0FB79184A0C335B0013441B79F3
:10430000002B07D0144B93F82D30013BDAB2124B3F
:1043100083F82D20FB79104A0C335B0013440022F4
:104320001A71FB790C4A0C335B00134400225A715A
:10433000FB79002200211846FFF7DAFCFB7940F2F6
:10434000FF720649184600F0CFF80023FB60FB68B7
:1043500018461037BD4680BD6448002000F8FFFFB6
:1043600080B584B000AF78600B467B801220FFF7E9
:104370000FFD3B4B1B7CDBB2022B06D11220FFF75B
:10438000F7FC1123FB60FB6866E0354B1B7CDBB25E
:10439000012B33D1324BDB68002B06D00220FFF714
:1043A000E7FC1123FB60FB6856E02D4A7B68D36075
:1043B0002B4A7B8813832A4B93F82E3083F001031A
:1043C000DBB2002B13D000BF4FF48070FFF760FC0E
:1043D000034683F00103DBB2002BF5D14FF480706C
:1043E000FFF76CFC7B8819467868FFF717FD022001
:1043F000FFF7BEFC0023FB60FB682DE00220FFF707
:10440000B7FC174B01221A74154A7B685360144A93
:104410007B881381124B0022DA60114B93F82E3007
:10442000002B0AD00E4A7B8853830D4B93F82D3016
:1044300019467868FFF7F2FC0BE07B88194678682C
:10444000FFF7ECFC4FF48070FFF738FC0020FFF71B
:104450000DFC0023FB60FB6818461037BD4680BD8D
:104460006448002080B582B000AF00237B600C4B15
:104470001B7CDBB2012B02D008237B600BE0084BD6
:1044800093F82E30002B03D00020FFF7EFFB02E063
:104490000420FFF7EBFB7B6818460837BD4680BD5C
:1044A0006448002080B582B000AF0E4B1B7CDBB2AD
:1044B000002B03D011237B607B680FE0094B0222A5
:1044C0001A744FF48870FFF7F9FB1020FFF750FCC7
:1044D0000C20FFF7CBFB00237B607B681846083776
:1044E000BD4680BD6448002080B584B000AF03465F
:1044F000FB710B46BB8013467B80B7F90220B7F9EE
:104500000410FB791846FFF713FCFB7900211846CD
:10451000FFF74EFCF860B7F9043013F5006F10D1C7
:10452000264B5A69FB795B0001334FF0004121FAB9
:1045300003F3DB431340214A5361F868FFF728FC7B
:104540000EE01E4B5A69FB795B0001334FF00041CE
:1045500021FA03F31343194A5361F868FFF708FC83
:10456000FB7901211846FFF723FCF860B7F9023008
:1045700040F2FF7293420FD1104B5A69FB795B00F6
:104580004FF0004121FA03F3DB4313400B4A536120
:10459000F868FFF7FDFB0DE0084B5A69FB795B00FB
:1045A0004FF0004121FA03F31343044A5361F868C2
:1045B000FFF7DEFB00BF1037BD4680BD644800201A
:1045C00080B483B000AF0346FB71FB7903F01F0298
:1045D000074997F907305B09012000FA02F22033FE
:1045E00041F8232000BF0C37BD465DF8047B7047BF
:1045F00000E100E080B483B000AF78600B46FB7050
:10460000FB787A68134401221A6000BF0C37BD465C
:104610005DF8047B704780B485B000AF78600B46CE
:104620007B807B887A68134400221A607B887A68D2
:1046300013441B68FB60FB6800BF1437BD465DF880
:10464000047B704780B483B000AF78600B467B80FA
:104650007B887A6813441B68002B14BF0123002356
:10466000DBB218460C37BD465DF8047B704780B45A
:1046700083B000AF786039607B68D3F800223B6874
:10468000DB431A407B68C3F8002200BF0C37BD46ED
:104690005DF8047B704780B483B000AF7860396008
:1046A0007B683A68C3F8042300BF0C37BD465DF849
:1046B000047B704780B483B000AF786039607B685A
:1046C0003A68C3F8082300BF0C37BD465DF8047B89
:1046D000704780B483B000AF78607B680522C3F870
:1046E000002500BF0C37BD465DF8047B704780B4E1
:1046F00083B000AF78607B680022C3F8002500BF5C
:104700000C37BD465DF8047B704780B485B000AFC0
:10471000F860B9607A60FB68BA68C3F80825FB687E
:104720007A68C3F80C2500BF1437BD465DF8047BDA
:10473000704780B483B000AF786039607B683A68B6
:10474000C3F8242500BF0C37BD465DF8047B7047D5
:1047500080B485B000AF78607B68D3F8C434FB6068
:104760007B68FA68C3F8C424FB6818461437BD4652
:104770005DF8047B704780B483B000AF78600B466F
:10478000FB70FA787B68C3F8882500BF0C37BD46FC
:104790005DF8047B704780B483B000AF78607B68BD
:1047A000D3F81835DBB218460C37BD465DF8047BEC
:1047B000704780B483B000AF78600B46FB70FA7826
:1047C0007B68C3F81C2500BF0C37BD465DF8047B31
:1047D000704780B483B000AF786039607B683A6816
:1047E000C3F8002200BF0C37BD465DF8047B70475C
:1047F00080B582B000AF0346FB7197F907301846C9
:10480000FFF7DEFE00BF0837BD4680BD80B485B02F
:1048100000AF78607B681B0BFB7397F90F3018466D
:104820001437BD465DF8047B704780B483B000AF99
:1048300078604FF0A04318460C37BD465DF8047B06
:10484000704780B584B000AF78603B1D1846FFF715
:10485000ECFFF8607B68012202FA03F31946F8685E
:1048600000F03CF800BF1037BD4680BD80B584B075
:1048700000AF78603B1D1846FFF7D7FFF8607B68F4
:10488000012202FA03F31946F86800F036F800BF77
:104890001037BD4680BD80B584B000AF78603B1D49
:1048A0001846FFF7C2FFF860F86800F00AF8024601
:1048B0007B6822FA03F303F0010318461037BD4664
:1048C00080BD80B483B000AF78607B68D3F81035CA
:1048D00018460C37BD465DF8047B704780B483B042
:1048E00000AF786039607B683A68C3F8082500BF7C
:1048F0000C37BD465DF8047B704780B483B000AFD1
:10490000786039607B683A68C3F80C2500BF0C37C3
:10491000BD465DF8047B704780B485B000AF786019
:10492000254BFB607B68002B40D0244B1A68F9684C
:104930007B6800BF00BF00BF00BF00BF00BF00BF5B
:1049400000BF8A422FD000BF00BF00BF00BF00BF22
:1049500000BF00BF00BF00BF00BF00BF00BF00BF5F
:1049600000BF00BF00BF00BF00BF00BF00BF00BF4F
:1049700000BF00BF00BF00BF00BF00BF00BF00BF3F
:1049800000BF00BF00BF00BF00BF00BF00BF00BF2F
:1049900000BF00BF00BF00BF00BF00BF00BF00BF1F
:1049A00000BF00BF00BF013BC3D17B6000BF143715
:1049B000BD465DF8047B70470024F400D04200201F
:1049C00080B485B000AF78600323FB607B6803F0A0
:1049D0000103002B02D04FF40243FB607B6803F01D
:1049E0000203002B02D048F20123FB607B6803F036
:1049F0000403002B02D048F20223FB60FB68184638
:104A00001437BD465DF8047B704780B584B000AFB5
:104A100078604FF0A0427B681B6803F5E07340F2BA
:104A20000C6142F823104FF0A0427B685B6803F5ED
:104A3000E07340F20C6142F823107B681B68184653
:104A4000FFF7FFFE7B685B681846FFF7FAFE4FF042
:104A5000A0427B681B6803F5E07340F20D6142F8E9
:104A600023104FF0A0427B685B6803F5E07340F2CF
:104A70000D6142F823100420FFF74EFF0023FB6076
:104A80001EE07B685B681846FFF705FF0346002BB6
:104A900003D0FB68002B17D124E07B681B68184605
:104AA000FFF7E4FE0420FFF737FF7B681B6818461A
:104AB000FFF7C7FE0420FFF72FFFFB680133FB6001
:104AC000FB68082BDDDD00E000BF7B685B681846F3
